{
  "contractName": "CrowdFunding",
  "abi": [
    {
      "constant": true,
      "inputs": [
        {
          "name": "",
          "type": "uint256"
        }
      ],
      "name": "fundRaisers",
      "outputs": [
        {
          "name": "id",
          "type": "uint256"
        },
        {
          "name": "name",
          "type": "string"
        },
        {
          "name": "description",
          "type": "string"
        },
        {
          "name": "minDonation",
          "type": "uint256"
        },
        {
          "name": "fundsToBeRaised",
          "type": "uint256"
        },
        {
          "name": "fundsRaised",
          "type": "uint256"
        },
        {
          "name": "fundsAccepter",
          "type": "address"
        },
        {
          "name": "completed",
          "type": "bool"
        }
      ],
      "payable": false,
      "stateMutability": "view",
      "type": "function",
      "signature": "0x70eec57c"
    },
    {
      "constant": true,
      "inputs": [],
      "name": "fundRaisersCount",
      "outputs": [
        {
          "name": "",
          "type": "uint256"
        }
      ],
      "payable": false,
      "stateMutability": "view",
      "type": "function",
      "signature": "0xb48e6eca"
    },
    {
      "anonymous": false,
      "inputs": [
        {
          "indexed": false,
          "name": "id",
          "type": "uint256"
        },
        {
          "indexed": false,
          "name": "name",
          "type": "string"
        },
        {
          "indexed": false,
          "name": "description",
          "type": "string"
        },
        {
          "indexed": false,
          "name": "minDonation",
          "type": "uint256"
        },
        {
          "indexed": false,
          "name": "fundsToBeRaised",
          "type": "uint256"
        },
        {
          "indexed": false,
          "name": "fundsRaised",
          "type": "uint256"
        },
        {
          "indexed": false,
          "name": "fundsAccepter",
          "type": "address"
        },
        {
          "indexed": false,
          "name": "completed",
          "type": "bool"
        }
      ],
      "name": "FundRaiserCreated",
      "type": "event",
      "signature": "0x6a8868e21a35438d073235f3330f5b4a5a5d27adb864e5a8d0773b62aa7fd0f1"
    },
    {
      "anonymous": false,
      "inputs": [
        {
          "indexed": false,
          "name": "id",
          "type": "uint256"
        },
        {
          "indexed": false,
          "name": "name",
          "type": "string"
        },
        {
          "indexed": false,
          "name": "fundsRaised",
          "type": "uint256"
        },
        {
          "indexed": false,
          "name": "fundsAccepter",
          "type": "address"
        },
        {
          "indexed": false,
          "name": "completed",
          "type": "bool"
        }
      ],
      "name": "DonationRecieved",
      "type": "event",
      "signature": "0xbf3fab3ce71e7b5cc74a3f32b77b9777ea40ee88c100ce36692df7ee4705d9d0"
    },
    {
      "constant": false,
      "inputs": [
        {
          "name": "_name",
          "type": "string"
        },
        {
          "name": "_description",
          "type": "string"
        },
        {
          "name": "_fundsToBeRaised",
          "type": "uint256"
        },
        {
          "name": "_minDonation",
          "type": "uint256"
        }
      ],
      "name": "createFundRaiser",
      "outputs": [],
      "payable": false,
      "stateMutability": "nonpayable",
      "type": "function",
      "signature": "0xfb1f67b8"
    },
    {
      "constant": false,
      "inputs": [
        {
          "name": "_id",
          "type": "uint256"
        }
      ],
      "name": "donate",
      "outputs": [],
      "payable": true,
      "stateMutability": "payable",
      "type": "function",
      "signature": "0xf14faf6f"
    }
  ],
  "bytecode": "0x60806040526000805534801561001457600080fd5b50610e6b806100246000396000f3fe608060405260043610610062576000357c0100000000000000000000000000000000000000000000000000000000900463ffffffff16806370eec57c14610067578063b48e6eca146101e1578063f14faf6f1461020c578063fb1f67b81461023a575b600080fd5b34801561007357600080fd5b506100a06004803603602081101561008a57600080fd5b81019080803590602001909291905050506103ad565b6040518089815260200180602001806020018881526020018781526020018681526020018573ffffffffffffffffffffffffffffffffffffffff1673ffffffffffffffffffffffffffffffffffffffff1681526020018415151515815260200183810383528a818151815260200191508051906020019080838360005b8381101561013857808201518184015260208101905061011d565b50505050905090810190601f1680156101655780820380516001836020036101000a031916815260200191505b50838103825289818151815260200191508051906020019080838360005b8381101561019e578082015181840152602081019050610183565b50505050905090810190601f1680156101cb5780820380516001836020036101000a031916815260200191505b509a505050505050505050505060405180910390f35b3480156101ed57600080fd5b506101f6610552565b6040518082815260200191505060405180910390f35b6102386004803603602081101561022257600080fd5b8101908080359060200190929190505050610558565b005b34801561024657600080fd5b506103ab6004803603608081101561025d57600080fd5b810190808035906020019064010000000081111561027a57600080fd5b82018360208201111561028c57600080fd5b803590602001918460018302840111640100000000831117156102ae57600080fd5b91908080601f016020809104026020016040519081016040528093929190818152602001838380828437600081840152601f19601f8201169050808301925050505050505091929192908035906020019064010000000081111561031157600080fd5b82018360208201111561032357600080fd5b8035906020019184600183028401116401000000008311171561034557600080fd5b91908080601f016020809104026020016040519081016040528093929190818152602001838380828437600081840152601f19601f8201169050808301925050505050505091929192908035906020019092919080359060200190929190505050610a43565b005b6001602052806000526040600020600091509050806000015490806001018054600181600116156101000203166002900480601f01602080910402602001604051908101604052809291908181526020018280546001816001161561010002031660029004801561045f5780601f106104345761010080835404028352916020019161045f565b820191906000526020600020905b81548152906001019060200180831161044257829003601f168201915b505050505090806002018054600181600116156101000203166002900480601f0160208091040260200160405190810160405280929190818152602001828054600181600116156101000203166002900480156104fd5780601f106104d2576101008083540402835291602001916104fd565b820191906000526020600020905b8154815290600101906020018083116104e057829003601f168201915b5050505050908060030154908060040154908060050154908060060160009054906101000a900473ffffffffffffffffffffffffffffffffffffffff16908060060160149054906101000a900460ff16905088565b60005481565b610560610d3c565b60016000838152602001908152602001600020610100604051908101604052908160008201548152602001600182018054600181600116156101000203166002900480601f0160208091040260200160405190810160405280929190818152602001828054600181600116156101000203166002900480156106235780601f106105f857610100808354040283529160200191610623565b820191906000526020600020905b81548152906001019060200180831161060657829003601f168201915b50505050508152602001600282018054600181600116156101000203166002900480601f0160208091040260200160405190810160405280929190818152602001828054600181600116156101000203166002900480156106c55780601f1061069a576101008083540402835291602001916106c5565b820191906000526020600020905b8154815290600101906020018083116106a857829003601f168201915b505050505081526020016003820154815260200160048201548152602001600582015481526020016006820160009054906101000a900473ffffffffffffffffffffffffffffffffffffffff1673ffffffffffffffffffffffffffffffffffffffff1673ffffffffffffffffffffffffffffffffffffffff1681526020016006820160149054906101000a900460ff161515151581525050905060008160c001519050600082600001511180156107825750600054826000015111155b151561078d57600080fd5b816060015134101515156107a057600080fd5b8160e001511515156107b157600080fd5b3373ffffffffffffffffffffffffffffffffffffffff168173ffffffffffffffffffffffffffffffffffffffff16141515156107ec57600080fd5b348260a00151018260a001818152505081608001518260a0015110151561081f5760018260e00190151590811515815250505b8160016000858152602001908152602001600020600082015181600001556020820151816001019080519060200190610859929190610d9a565b506040820151816002019080519060200190610876929190610d9a565b50606082015181600301556080820151816004015560a0820151816005015560c08201518160060160006101000a81548173ffffffffffffffffffffffffffffffffffffffff021916908373ffffffffffffffffffffffffffffffffffffffff16021790555060e08201518160060160146101000a81548160ff0219169083151502179055509050508073ffffffffffffffffffffffffffffffffffffffff166108fc349081150290604051600060405180830381858888f19350505050158015610945573d6000803e3d6000fd5b507fbf3fab3ce71e7b5cc74a3f32b77b9777ea40ee88c100ce36692df7ee4705d9d08383602001518460a00151338660e0015160405180868152602001806020018581526020018473ffffffffffffffffffffffffffffffffffffffff1673ffffffffffffffffffffffffffffffffffffffff16815260200183151515158152602001828103825286818151815260200191508051906020019080838360005b83811015610a005780820151818401526020810190506109e5565b50505050905090810190601f168015610a2d5780820380516001836020036101000a031916815260200191505b50965050505050505060405180910390a1505050565b60008451111515610a5357600080fd5b60008351111515610a6357600080fd5b600082111515610a7257600080fd5b600081111515610a8157600080fd5b6000808154809291906001019190505550610100604051908101604052806000548152602001858152602001848152602001828152602001838152602001600081526020013373ffffffffffffffffffffffffffffffffffffffff168152602001600015158152506001600080548152602001908152602001600020600082015181600001556020820151816001019080519060200190610b23929190610d9a565b506040820151816002019080519060200190610b40929190610d9a565b50606082015181600301556080820151816004015560a0820151816005015560c08201518160060160006101000a81548173ffffffffffffffffffffffffffffffffffffffff021916908373ffffffffffffffffffffffffffffffffffffffff16021790555060e08201518160060160146101000a81548160ff0219169083151502179055509050507f6a8868e21a35438d073235f3330f5b4a5a5d27adb864e5a8d0773b62aa7fd0f16000548585848660003360006040518089815260200180602001806020018881526020018781526020018681526020018573ffffffffffffffffffffffffffffffffffffffff1673ffffffffffffffffffffffffffffffffffffffff1681526020018415151515815260200183810383528a818151815260200191508051906020019080838360005b83811015610c8e578082015181840152602081019050610c73565b50505050905090810190601f168015610cbb5780820380516001836020036101000a031916815260200191505b50838103825289818151815260200191508051906020019080838360005b83811015610cf4578082015181840152602081019050610cd9565b50505050905090810190601f168015610d215780820380516001836020036101000a031916815260200191505b509a505050505050505050505060405180910390a150505050565b61010060405190810160405280600081526020016060815260200160608152602001600081526020016000815260200160008152602001600073ffffffffffffffffffffffffffffffffffffffff1681526020016000151581525090565b828054600181600116156101000203166002900490600052602060002090601f016020900481019282601f10610ddb57805160ff1916838001178555610e09565b82800160010185558215610e09579182015b82811115610e08578251825591602001919060010190610ded565b5b509050610e169190610e1a565b5090565b610e3c91905b80821115610e38576000816000905550600101610e20565b5090565b9056fea165627a7a72305820fbaa7e6624a61a6dd6436cd88c155416696b8b8353e929a196966971c29444960029",
  "source": "pragma solidity ^0.5.0;\r\n\r\ncontract CrowdFunding {\r\n    uint256 public fundRaisersCount = 0;\r\n    mapping(uint256 => FundRaiser) public fundRaisers;\r\n\r\n    struct FundRaiser {\r\n        uint256 id;\r\n        string name;\r\n        string description;\r\n        uint256 minDonation;\r\n        uint256 fundsToBeRaised;\r\n        uint256 fundsRaised;\r\n        address payable fundsAccepter;\r\n        bool completed;\r\n    }\r\n\r\n    event FundRaiserCreated(\r\n        uint256 id,\r\n        string name,\r\n        string description,\r\n        uint256 minDonation,\r\n        uint256 fundsToBeRaised,\r\n        uint256 fundsRaised,\r\n        address payable fundsAccepter,\r\n        bool completed\r\n    );\r\n\r\n    event DonationRecieved(\r\n        uint256 id,\r\n        string name,\r\n        uint256 fundsRaised,\r\n        address payable fundsAccepter,\r\n        bool completed\r\n    );\r\n\r\n    function createFundRaiser(\r\n        string memory _name,\r\n        string memory _description,\r\n        uint256 _fundsToBeRaised,\r\n        uint256 _minDonation\r\n    ) public {\r\n        // Require a valid name\r\n        require(bytes(_name).length > 0);\r\n        // Require a valid description\r\n        require(bytes(_description).length > 0);\r\n        // Require a valid fundsToBeRaised\r\n        require(_fundsToBeRaised > 0);\r\n        // Require a valid minDonation\r\n        require(_minDonation > 0);\r\n\r\n        // Create the fund raiser\r\n        fundRaisersCount++;\r\n        fundRaisers[fundRaisersCount] = FundRaiser(\r\n            fundRaisersCount,\r\n            _name,\r\n            _description,\r\n            _minDonation,\r\n            _fundsToBeRaised,\r\n            0,\r\n            msg.sender,\r\n            false\r\n        );\r\n\r\n        emit FundRaiserCreated(\r\n            fundRaisersCount,\r\n            _name,\r\n            _description,\r\n            _minDonation,\r\n            _fundsToBeRaised,\r\n            0,\r\n            msg.sender,\r\n            false\r\n        );\r\n    }\r\n\r\n    function donate(uint256 _id) public payable {\r\n        FundRaiser memory _fundRaiser = fundRaisers[_id];\r\n        // Fetch the owner\r\n        address payable _acceptor = _fundRaiser.fundsAccepter;\r\n        // Require a valid id\r\n        require(_fundRaiser.id > 0 && _fundRaiser.id <= fundRaisersCount);\r\n        // Require that value is greater than minDonation\r\n        require(msg.value >= _fundRaiser.minDonation);\r\n        // Require that the fund target has not been completed\r\n        require(!_fundRaiser.completed);\r\n        // Require that the owner is not donating\r\n        require(_acceptor != msg.sender);\r\n\r\n        // Add the value to the fundsRaised\r\n        _fundRaiser.fundsRaised = _fundRaiser.fundsRaised + msg.value;\r\n\r\n        if (_fundRaiser.fundsRaised >= _fundRaiser.fundsToBeRaised) {\r\n            _fundRaiser.completed = true;\r\n        }\r\n        // Update the fundRaiser\r\n        fundRaisers[_id] = _fundRaiser;\r\n        // Donate the Ethers\r\n        address(_acceptor).transfer(msg.value);\r\n\r\n        // Trigger an event\r\n        emit DonationRecieved(\r\n            _id,\r\n            _fundRaiser.name,\r\n            _fundRaiser.fundsRaised,\r\n            msg.sender,\r\n            _fundRaiser.completed\r\n        );\r\n    }\r\n}\r\n",
  "sourcePath": "C:/Users/Ritesh/Downloads/crowd-funding/src/contracts/CrowdFunding.sol",
  "compiler": {
    "name": "solc",
    "version": "0.5.0+commit.1d4f565a.Emscripten.clang"
  },
  "schemaVersion": "3.0.2",
  "updatedAt": "2022-10-08T10:38:57.549Z",
  "devdoc": {
    "methods": {}
  },
  "userdoc": {
    "methods": {}
  }
}